{
  "_format": "hh-sol-artifact-1",
  "contractName": "LobbyFactory",
  "sourceName": "contracts/lobby/LobbyFactory.sol",
  "abi": [
    {
      "inputs": [
        {
          "internalType": "uint256",
          "name": "maxTimeoutDuration_",
          "type": "uint256"
        }
      ],
      "stateMutability": "nonpayable",
      "type": "constructor"
    },
    {
      "inputs": [
        {
          "internalType": "address",
          "name": "child",
          "type": "address"
        }
      ],
      "name": "DuplicateChild",
      "type": "error"
    },
    {
      "anonymous": false,
      "inputs": [
        {
          "indexed": false,
          "internalType": "address",
          "name": "sender",
          "type": "address"
        },
        {
          "indexed": false,
          "internalType": "address",
          "name": "implementation",
          "type": "address"
        }
      ],
      "name": "Implementation",
      "type": "event"
    },
    {
      "anonymous": false,
      "inputs": [
        {
          "indexed": false,
          "internalType": "uint8",
          "name": "version",
          "type": "uint8"
        }
      ],
      "name": "Initialized",
      "type": "event"
    },
    {
      "anonymous": false,
      "inputs": [
        {
          "indexed": false,
          "internalType": "address",
          "name": "sender",
          "type": "address"
        },
        {
          "indexed": false,
          "internalType": "address",
          "name": "child",
          "type": "address"
        }
      ],
      "name": "NewChild",
      "type": "event"
    },
    {
      "inputs": [
        {
          "internalType": "bytes",
          "name": "data_",
          "type": "bytes"
        }
      ],
      "name": "createChild",
      "outputs": [
        {
          "internalType": "address",
          "name": "",
          "type": "address"
        }
      ],
      "stateMutability": "nonpayable",
      "type": "function"
    },
    {
      "inputs": [
        {
          "components": [
            {
              "internalType": "bool",
              "name": "refMustAgree",
              "type": "bool"
            },
            {
              "internalType": "address",
              "name": "ref",
              "type": "address"
            },
            {
              "internalType": "address",
              "name": "token",
              "type": "address"
            },
            {
              "components": [
                {
                  "internalType": "contract IExpressionDeployerV1",
                  "name": "deployer",
                  "type": "address"
                },
                {
                  "internalType": "contract IInterpreterV1",
                  "name": "interpreter",
                  "type": "address"
                },
                {
                  "internalType": "contract IInterpreterStoreV1",
                  "name": "store",
                  "type": "address"
                },
                {
                  "components": [
                    {
                      "internalType": "bytes[]",
                      "name": "sources",
                      "type": "bytes[]"
                    },
                    {
                      "internalType": "uint256[]",
                      "name": "constants",
                      "type": "uint256[]"
                    }
                  ],
                  "internalType": "struct ExpressionConfig",
                  "name": "expressionConfig",
                  "type": "tuple"
                }
              ],
              "internalType": "struct EvaluableConfig",
              "name": "evaluableConfig",
              "type": "tuple"
            },
            {
              "internalType": "bytes",
              "name": "description",
              "type": "bytes"
            },
            {
              "internalType": "uint256",
              "name": "timeoutDuration",
              "type": "uint256"
            }
          ],
          "internalType": "struct LobbyConfig",
          "name": "config_",
          "type": "tuple"
        }
      ],
      "name": "createChildTyped",
      "outputs": [
        {
          "internalType": "contract Lobby",
          "name": "",
          "type": "address"
        }
      ],
      "stateMutability": "nonpayable",
      "type": "function"
    },
    {
      "inputs": [],
      "name": "implementation",
      "outputs": [
        {
          "internalType": "address",
          "name": "",
          "type": "address"
        }
      ],
      "stateMutability": "view",
      "type": "function"
    },
    {
      "inputs": [
        {
          "internalType": "address",
          "name": "maybeChild_",
          "type": "address"
        }
      ],
      "name": "isChild",
      "outputs": [
        {
          "internalType": "bool",
          "name": "",
          "type": "bool"
        }
      ],
      "stateMutability": "view",
      "type": "function"
    }
  ],
  "bytecode": "0x60a060405234801561001057600080fd5b5060405162004c7e38038062004c7e8339810160408190526100319161018f565b6100396100c1565b60008160405161004890610181565b908152602001604051809103906000f08015801561006a573d6000803e3d6000fd5b50604080513381526001600160a01b03831660208201529192507f7fac34ecf0b1b374cd9659e3d17db602659d53f1162b1f20142e6c02694aed70910160405180910390a16001600160a01b0316608052506101a8565b600054610100900460ff161561012d5760405162461bcd60e51b815260206004820152602760248201527f496e697469616c697a61626c653a20636f6e747261637420697320696e697469604482015266616c697a696e6760c81b606482015260840160405180910390fd5b60005460ff908116101561017f576000805460ff191660ff9081179091556040519081527f7f26b83ff96e1f2b6a682f133852f6798a09c465da95921460cefb38474024989060200160405180910390a15b565b613c60806200101e83390190565b6000602082840312156101a157600080fd5b5051919050565b608051610e54620001ca60003960008181609301526103020152610e546000f3fe608060405234801561001057600080fd5b506004361061004c5760003560e01c80632ea72a49146100515780635c60da1b1461008e578063baebe9e9146100b5578063fc91a897146100c8575b600080fd5b61006461005f366004610601565b610111565b60405173ffffffffffffffffffffffffffffffffffffffff90911681526020015b60405180910390f35b6100647f000000000000000000000000000000000000000000000000000000000000000081565b6100646100c3366004610854565b61023f565b6101016100d6366004610925565b73ffffffffffffffffffffffffffffffffffffffff1660009081526033602052604090205460ff1690565b6040519015158152602001610085565b600061011b61026f565b6000610126836102e2565b73ffffffffffffffffffffffffffffffffffffffff811660009081526033602052604090205490915060ff16156101a6576040517fd23867da00000000000000000000000000000000000000000000000000000000815273ffffffffffffffffffffffffffffffffffffffff821660048201526024015b60405180910390fd5b73ffffffffffffffffffffffffffffffffffffffff811660008181526033602090815260409182902080547fffffffffffffffffffffffffffffffffffffffffffffffffffffffffffffff001660011790558151338152908101929092527f7da70c4e5387d7038610b79ca7d304caaef815826e51e67cf247135387a79bce910160405180910390a1905061023a60018055565b919050565b60006102698260405160200161025591906109b7565b604051602081830303815290604052610111565b92915050565b6002600154036102db576040517f08c379a000000000000000000000000000000000000000000000000000000000815260206004820152601f60248201527f5265656e7472616e637947756172643a207265656e7472616e742063616c6c00604482015260640161019d565b6002600155565b600080828060200190518101906102f99190610d4d565b905060006103267f00000000000000000000000000000000000000000000000000000000000000006103b5565b6040517fe17a852900000000000000000000000000000000000000000000000000000000815290915073ffffffffffffffffffffffffffffffffffffffff82169063e17a85299061037b9085906004016109b7565b600060405180830381600087803b15801561039557600080fd5b505af11580156103a9573d6000803e3d6000fd5b50929695505050505050565b6000763d602d80600a3d3981f3363d3d373d3d3d363d730000008260601b60e81c176000526e5af43d82803e903d91602b57fd5bf38260781b17602052603760096000f0905073ffffffffffffffffffffffffffffffffffffffff811661023a576040517f08c379a000000000000000000000000000000000000000000000000000000000815260206004820152601660248201527f455243313136373a20637265617465206661696c656400000000000000000000604482015260640161019d565b7f4e487b7100000000000000000000000000000000000000000000000000000000600052604160045260246000fd5b6040516080810167ffffffffffffffff811182821017156104ca576104ca610478565b60405290565b6040805190810167ffffffffffffffff811182821017156104ca576104ca610478565b60405160c0810167ffffffffffffffff811182821017156104ca576104ca610478565b604051601f82017fffffffffffffffffffffffffffffffffffffffffffffffffffffffffffffffe016810167ffffffffffffffff8111828210171561055d5761055d610478565b604052919050565b600067ffffffffffffffff82111561057f5761057f610478565b50601f017fffffffffffffffffffffffffffffffffffffffffffffffffffffffffffffffe01660200190565b600082601f8301126105bc57600080fd5b81356105cf6105ca82610565565b610516565b8181528460208386010111156105e457600080fd5b816020850160208301376000918101602001919091529392505050565b60006020828403121561061357600080fd5b813567ffffffffffffffff81111561062a57600080fd5b610636848285016105ab565b949350505050565b801515811461064c57600080fd5b50565b803561023a8161063e565b73ffffffffffffffffffffffffffffffffffffffff8116811461064c57600080fd5b803561023a8161065a565b600067ffffffffffffffff8211156106a1576106a1610478565b5060051b60200190565b600082601f8301126106bc57600080fd5b813560206106cc6105ca83610687565b82815260059290921b840181019181810190868411156106eb57600080fd5b8286015b8481101561070657803583529183019183016106ef565b509695505050505050565b60006080828403121561072357600080fd5b61072b6104a7565b905081356107388161065a565b81526020828101356107498161065a565b82820152604083013561075b8161065a565b6040830152606083013567ffffffffffffffff8082111561077b57600080fd5b908401906040828703121561078f57600080fd5b6107976104d0565b8235828111156107a657600080fd5b8301601f810188136107b757600080fd5b80356107c56105ca82610687565b81815260059190911b8201860190868101908a8311156107e457600080fd5b8784015b8381101561081c578035878111156108005760008081fd5b61080e8d8b838901016105ab565b8452509188019188016107e8565b508452505050828401358281111561083357600080fd5b61083f888286016106ab565b85830152508060608601525050505092915050565b60006020828403121561086657600080fd5b813567ffffffffffffffff8082111561087e57600080fd5b9083019060c0828603121561089257600080fd5b61089a6104f3565b6108a38361064f565b81526108b16020840161067c565b60208201526108c26040840161067c565b60408201526060830135828111156108d957600080fd5b6108e587828601610711565b6060830152506080830135828111156108fd57600080fd5b610909878286016105ab565b60808301525060a083013560a082015280935050505092915050565b60006020828403121561093757600080fd5b81356109428161065a565b9392505050565b60005b8381101561096457818101518382015260200161094c565b50506000910152565b60008151808452610985816020860160208601610949565b601f017fffffffffffffffffffffffffffffffffffffffffffffffffffffffffffffffe0169290920160200192915050565b6000602080835283511515818401528084015173ffffffffffffffffffffffffffffffffffffffff80821660408601528060408701511660608601526060860151915060c060808601528082511660e086015280838301511661010086015280604083015116610120860152506060810151905060806101408501526101a08401815160406101608701528181518084526101c093508388019150838160051b8901019350858301925060005b81811015610ab0577ffffffffffffffffffffffffffffffffffffffffffffffffffffffffffffffe40898603018352610a9e85855161096d565b94509286019291860191600101610a64565b50505050908201518482037ffffffffffffffffffffffffffffffffffffffffffffffffffffffffffffffea001610180860152805180835290830191600091908401905b80831015610b145783518252928401926001929092019190840190610af4565b50608087015193507fffffffffffffffffffffffffffffffffffffffffffffffffffffffffffffffe08682030160a0870152610b50818561096d565b935050505060a084015160c08401528091505092915050565b805161023a8161063e565b805161023a8161065a565b600082601f830112610b9057600080fd5b8151610b9e6105ca82610565565b818152846020838601011115610bb357600080fd5b610636826020830160208701610949565b600082601f830112610bd557600080fd5b81516020610be56105ca83610687565b82815260059290921b84018101918181019086841115610c0457600080fd5b8286015b848110156107065780518352918301918301610c08565b600060808284031215610c3157600080fd5b610c396104a7565b90508151610c468161065a565b8152602082810151610c578161065a565b828201526040830151610c698161065a565b6040830152606083015167ffffffffffffffff80821115610c8957600080fd5b9084019060408287031215610c9d57600080fd5b610ca56104d0565b825182811115610cb457600080fd5b8301601f81018813610cc557600080fd5b8051610cd36105ca82610687565b81815260059190911b8201860190868101908a831115610cf257600080fd5b8784015b83811015610d2a57805187811115610d0e5760008081fd5b610d1c8d8b83890101610b7f565b845250918801918801610cf6565b5084525050508284015182811115610d4157600080fd5b61083f88828601610bc4565b600060208284031215610d5f57600080fd5b815167ffffffffffffffff80821115610d7757600080fd5b9083019060c08286031215610d8b57600080fd5b610d936104f3565b610d9c83610b69565b8152610daa60208401610b74565b6020820152610dbb60408401610b74565b6040820152606083015182811115610dd257600080fd5b610dde87828601610c1f565b606083015250608083015182811115610df657600080fd5b610e0287828601610b7f565b60808301525060a083015160a08201528093505050509291505056fea2646970667358221220aa75227d0a02740fe15a7a4b691043e74d6d0a5023a0119fde8a47572633271964736f6c6343000811003360a06040523480156200001157600080fd5b5060405162003c6038038062003c6083398101604081905262000034916200003d565b60805262000057565b6000602082840312156200005057600080fd5b5051919050565b608051613bed6200007360003960006114b00152613bed6000f3fe608060405234801561001057600080fd5b50600436106100d45760003560e01c80637b3d9fb811610081578063b6b55f251161005b578063b6b55f2514610198578063cf8fd726146101ab578063e17a8529146101b357600080fd5b80637b3d9fb81461014a57806393c965571461015d578063a03e60dd1461018557600080fd5b8063500db45e116100b2578063500db45e1461011c578063590e1ae31461012f5780635d521c101461013757600080fd5b806301a4acfa146100d9578063055ad42e146100ee5780631cf355e814610109575b600080fd5b6100ec6100e7366004612f35565b6101c6565b005b6100f66105ff565b6040519081526020015b60405180910390f35b6100f66101173660046130e5565b610669565b6100ec61012a366004612f35565b6106a8565b6100ec6107d8565b6100f66101453660046130e5565b6108a0565b6100ec610158366004612f35565b6108e7565b61017061016b36600461317b565b610e82565b60405163ffffffff9091168152602001610100565b6100ec610193366004612f35565b610eb2565b6100ec6101a636600461317b565b611277565b6100ec611295565b6100ec6101c1366004613194565b611363565b6001806101d16105ff565b14610208576040517f301c306b00000000000000000000000000000000000000000000000000000000815260040160405180910390fd5b336000908152603b602052604090205415610284576040517f08c379a000000000000000000000000000000000000000000000000000000000815260206004820152600f60248201527f4f4e4c595f4e4f4e5f504c41594552000000000000000000000000000000000060448201526064015b60405180910390fd5b60365473ffffffffffffffffffffffffffffffffffffffff163303610305576040517f08c379a000000000000000000000000000000000000000000000000000000000815260206004820152600c60248201527f4f4e4c595f4e4f4e5f5245460000000000000000000000000000000000000000604482015260640161027b565b61030d611847565b6040805160608101825260385473ffffffffffffffffffffffffffffffffffffffff908116825260395481166020830152603a541691810191909152600061038a8160405190808252806020026020018201604052801561038257816020015b606081526020019060019003908161036d5790505b5086866118b8565b90507f17a5c0f3785132a57703932032f6863e7920434150aa1dc940e567b440fdce1f33826040516103bd92919061325f565b60405180910390a1600080836000015173ffffffffffffffffffffffffffffffffffffffff16636715f825856020015160006103fc8860400151611bc1565b876040518563ffffffff1660e01b815260040161041c949392919061328e565b600060405180830381865afa158015610439573d6000803e3d6000fd5b505050506040513d6000823e601f3d9081017fffffffffffffffffffffffffffffffffffffffffffffffffffffffffffffffe016820160405261047f919081019061332e565b9150915060008260028451038151811061049b5761049b613392565b602002602001015190506000836001855103815181106104bd576104bd613392565b602090810291909101810151336000908152603b83526040808220600190559289015192517f946aadc600000000000000000000000000000000000000000000000000000000815291935073ffffffffffffffffffffffffffffffffffffffff9092169163946aadc691610536919087906004016133c1565b600060405180830381600087803b15801561055057600080fd5b505af1158015610564573d6000803e3d6000fd5b5050505061057181611bea565b6040513381527f0764c80c4165f118547b301a0b4b91eac21bd2f2d9b61d0ac723ff0aab27bb799060200160405180910390a181156105ea576105b5600242611c95565b6040513381527f90918ab0d30e0330d3f5458a4e53d30ec3c03a164673a0a736814dc9fddcb71f906020015b60405180910390a15b5050505050506105fa6001600255565b505050565b60408051610100810191829052600091610664919083906008908280855b82829054906101000a900463ffffffff1663ffffffff168152602001906004019060208260030104928301926001038202915080841161061d5790505050505050426108a0565b905090565b600080821161067957600061069b565b82610685600184613409565b6008811061069557610695613392565b60200201515b63ffffffff169392505050565b6003806106b36105ff565b036106ea576040517f301c306b00000000000000000000000000000000000000000000000000000000815260040160405180910390fd5b6040805160608101825260385473ffffffffffffffffffffffffffffffffffffffff908116825260395481166020830152603a541691810191909152610731908484611f38565b610767576040517f6249398b00000000000000000000000000000000000000000000000000000000815260040160405180910390fd5b60046107716105ff565b1015610798576107936107826105ff565b61078d90600161341c565b42611c95565b610767565b7f105efb54c1671406f08698f3253405ad85182c2f493d5c6f5f7e03aff28839b43384846040516107cb9392919061352c565b60405180910390a1505050565b6004806107e36105ff565b1461081a576040517f301c306b00000000000000000000000000000000000000000000000000000000815260040160405180910390fd5b336000818152603c602052604090205460375490916108509173ffffffffffffffffffffffffffffffffffffffff169083612124565b336000818152603c6020908152604080832092909255815192835282018390527fbb28353e4598c3b9199101a66e0989549b659a59a54d2c27fbb183f1932c8e6d91015b60405180910390a15050565b60005b60088110156108e1578281600881106108be576108be613392565b602002015163ffffffff1682106108e157806108d98161356d565b9150506108a3565b92915050565b6002806108f26105ff565b101561095a576040517f08c379a000000000000000000000000000000000000000000000000000000000815260206004820152600960248201527f4d494e5f50484153450000000000000000000000000000000000000000000000604482015260640161027b565b6004806109656105ff565b0361099c576040517f301c306b00000000000000000000000000000000000000000000000000000000815260040160405180910390fd5b6109a4611847565b60006109af846121f8565b60355490915060026109bf6105ff565b03610a0f5780156109ff576040517fd3963c5d0000000000000000000000000000000000000000000000000000000081526004810182905260240161027b565b6035829055610a0f600342611c95565b6003610a196105ff565b14610a50576040517f301c306b00000000000000000000000000000000000000000000000000000000815260040160405180910390fd5b50603554818114610a97576040517f9484925e000000000000000000000000000000000000000000000000000000008152600481018290526024810183905260440161027b565b6040805160608101825260385473ffffffffffffffffffffffffffffffffffffffff90811682526039548116602080840191909152603a5490911682840152336000908152603e90915291822054909103610d015760408051600080825260208201909252610b239082610b1b565b6060815260200190600190039081610b065790505b5089896118b8565b90507f17a5c0f3785132a57703932032f6863e7920434150aa1dc940e567b440fdce1f3382604051610b5692919061325f565b60405180910390a1600080836000015173ffffffffffffffffffffffffffffffffffffffff16636715f82585602001516000610b958860400151612228565b876040518563ffffffff1660e01b8152600401610bb5949392919061328e565b600060405180830381865afa158015610bd2573d6000803e3d6000fd5b505050506040513d6000823e601f3d9081017fffffffffffffffffffffffffffffffffffffffffffffffffffffffffffffffe0168201604052610c18919081019061332e565b915091506000610c6a610c3e603f54670de0b6b3a764000061225390919063ffffffff16565b84600186510381518110610c5457610c54613392565b602002602001015161226990919063ffffffff16565b603f805482019055336000908152603e602052604090205550805115610cfd57836020015173ffffffffffffffffffffffffffffffffffffffff1663946aadc66000836040518363ffffffff1660e01b8152600401610cca9291906133c1565b600060405180830381600087803b158015610ce457600080fd5b505af1158015610cf8573d6000803e3d6000fd5b505050505b5050505b336000908152603e602052604090205415610e6f576037546040517f70a08231000000000000000000000000000000000000000000000000000000008152306004820152600091610de79173ffffffffffffffffffffffffffffffffffffffff909116906370a0823190602401602060405180830381865afa158015610d8b573d6000803e3d6000fd5b505050506040513d601f19601f82011682018060405250810190610daf91906135a5565b336000908152603e602090815260408083205491819052822054603d54610de19391610dda91613409565b919061227f565b90612269565b603754909150610e0e9073ffffffffffffffffffffffffffffffffffffffff163383612124565b603d543360008181526040602081815281832094909455603e845290819020548151928352928201929092529081018290527f34fcbac0073d7c3d388e51312faf357774904998eeb8fca628b9e6f65ee1cbf79060600160405180910390a1505b505050610e7c6001600255565b50505050565b60008160088110610e9257600080fd5b60089182820401919006600402915054906101000a900463ffffffff1681565b600180610ebd6105ff565b14610ef4576040517f301c306b00000000000000000000000000000000000000000000000000000000815260040160405180910390fd5b336000908152603b6020526040902054610f6a576040517f08c379a000000000000000000000000000000000000000000000000000000000815260206004820152600b60248201527f4f4e4c595f504c41594552000000000000000000000000000000000000000000604482015260640161027b565b610f72611847565b6040805160608101825260385473ffffffffffffffffffffffffffffffffffffffff90811682526039548116602080840191909152603a5490911682840152336000908152603b8252838120819055603c825283812054845182815292830190945291929190610fff9082610ff7565b6060815260200190600190039081610fe25790505b5087876118b8565b90507f17a5c0f3785132a57703932032f6863e7920434150aa1dc940e567b440fdce1f338260405161103292919061325f565b60405180910390a182516020840151603a54600092839273ffffffffffffffffffffffffffffffffffffffff91821692636715f825928591611074911661229d565b876040518563ffffffff1660e01b8152600401611094949392919061328e565b600060405180830381865afa1580156110b1573d6000803e3d6000fd5b505050506040513d6000823e601f3d9081017fffffffffffffffffffffffffffffffffffffffffffffffffffffffffffffffe01682016040526110f7919081019061332e565b91509150600061113c85610de161111686805160209081029091010190565b7fffffffffffffffffffffffffffffffffffffffffffffffffffffffffffffffe0015190565b6037549091506111639073ffffffffffffffffffffffffffffffffffffffff163383612124565b336000908152603c60205260408120819055603d8054839290611187908490613409565b909155505060208601516040517f946aadc600000000000000000000000000000000000000000000000000000000815273ffffffffffffffffffffffffffffffffffffffff9091169063946aadc6906111e79060009086906004016133c1565b600060405180830381600087803b15801561120157600080fd5b505af1158015611215573d6000803e3d6000fd5b50506037546040805133815273ffffffffffffffffffffffffffffffffffffffff90921660208301528101889052606081018490527f788e2ff2e7a5d83f7f128f5d44d44a080dc83e52de350a6f04d5c548017ba118925060800190506105e1565b61127f611847565b61128881611bea565b6112926001600255565b50565b60365473ffffffffffffffffffffffffffffffffffffffff163314611316576040517f08c379a000000000000000000000000000000000000000000000000000000000815260206004820152600860248201527f4f4e4c595f524546000000000000000000000000000000000000000000000000604482015260640161027b565b6000806113216105ff565b14611358576040517f301c306b00000000000000000000000000000000000000000000000000000000815260040160405180910390fd5b611292600142611c95565b600154610100900460ff161580801561138057506001805460ff16105b806113995750303b15801561139957506001805460ff16145b611425576040517f08c379a000000000000000000000000000000000000000000000000000000000815260206004820152602e60248201527f496e697469616c697a61626c653a20636f6e747261637420697320616c72656160448201527f647920696e697469616c697a6564000000000000000000000000000000000000606482015260840161027b565b600180547fffffffffffffffffffffffffffffffffffffffffffffffffffffffffffffff001681179055801561148257600180547fffffffffffffffffffffffffffffffffffffffffffffffffffffffffffff00ff166101001790555b61148a6122c8565b611492612375565b61149f60208301836135cc565b6114ae576114ae600142611c95565b7f00000000000000000000000000000000000000000000000000000000000000008260a00135111561153c576040517f08c379a000000000000000000000000000000000000000000000000000000000815260206004820152600b60248201527f4d41585f54494d454f5554000000000000000000000000000000000000000000604482015260640161027b565b61154a60a08301354261341c565b603455604080516060808201909252908190611568908501856135e9565b611579906040810190602001613627565b73ffffffffffffffffffffffffffffffffffffffff1681526020016115a160608501856135e9565b6115b2906060810190604001613627565b73ffffffffffffffffffffffffffffffffffffffff1681526020016115da60608501856135e9565b6115e8906020810190613627565b73ffffffffffffffffffffffffffffffffffffffff16631ed061d961161060608701876135e9565b61161e906060810190613644565b61162b6002600180612416565b6040518363ffffffff1660e01b8152600401611648929190613877565b6020604051808303816000875af1158015611667573d6000803e3d6000fd5b505050506040513d601f19601f8201168201806040525081019061168b919061389c565b73ffffffffffffffffffffffffffffffffffffffff9081169091528151603880549183167fffffffffffffffffffffffff000000000000000000000000000000000000000092831617905560208084015160398054918516918416919091179055604093840151603a805491909416921691909117909155611711918401908401613627565b603680547fffffffffffffffffffffffff00000000000000000000000000000000000000001673ffffffffffffffffffffffffffffffffffffffff929092169190911790556117666060830160408401613627565b603780547fffffffffffffffffffffffff00000000000000000000000000000000000000001673ffffffffffffffffffffffffffffffffffffffff929092169190911790556040517f1a5ecd75c79f0a1660755630745e8c9443e3ff29f7a128b36596290b81001e81906117dd9033908590613995565b60405180910390a1801561184357600180547fffffffffffffffffffffffffffffffffffffffffffffffffffffffffffff00ff1681556040519081527f7f26b83ff96e1f2b6a682f133852f6798a09c465da95921460cefb384740249890602001610894565b5050565b60028054036118b2576040517f08c379a000000000000000000000000000000000000000000000000000000000815260206004820152601f60248201527f5265656e7472616e637947756172643a207265656e7472616e742063616c6c00604482015260640161027b565b60028055565b60606000825167ffffffffffffffff8111156118d6576118d6612ddd565b6040519080825280602002602001820160405280156118ff578160200160208202803683370190505b509050600080845111611913576000611919565b83516001015b865101600201905060008167ffffffffffffffff81111561193c5761193c612ddd565b60405190808252806020026020018201604052801561196f57816020015b606081526020019060019003908161195a5790505b509050600061197c612453565b82828151811061198e5761198e613392565b602002602001018190525060005b88518110156119ec5781806001019250508881815181106119bf576119bf613392565b60200260200101518383815181106119d9576119d9613392565b602090810291909101015260010161199c565b50808060010191505086828281518110611a0857611a08613392565b6020908102919091010152855115611bb457808060010191505083828281518110611a3557611a35613392565b602002602001018190525060005b8651811015611bb257611adc878281518110611a6157611a61613392565b602002602001015160000151611ab9898481518110611a8257611a82613392565b602002602001015160400151604051602001611a9e9190613a86565b6040516020818303038152906040528051906020012061245f565b898481518110611acb57611acb613392565b60200260200101516020015161249a565b611b15576040517f52bf98480000000000000000000000000000000000000000000000000000000081526004810182905260240161027b565b868181518110611b2757611b27613392565b60200260200101516000015173ffffffffffffffffffffffffffffffffffffffff16858281518110611b5b57611b5b613392565b6020026020010181815250508180600101925050868181518110611b8157611b81613392565b602002602001015160400151838381518110611b9f57611b9f613392565b6020908102919091010152600101611a43565b505b50925050505b9392505050565b6000602082901b77ffffffffffffffffffffffffffffffffffffffff00000000166002176108e1565b336000908152603c60205260408120829055603d8054839290611c0e90849061341c565b9091555050603754611c389073ffffffffffffffffffffffffffffffffffffffff16333084612667565b6037546040805133815273ffffffffffffffffffffffffffffffffffffffff909216602083015281018290527f5548c837ab068cf56a2c2479df0882a4922fd203edb7517321831d95078c5f62906060015b60405180910390a150565b80421115611cff576040517f08c379a000000000000000000000000000000000000000000000000000000000815260206004820152600e60248201527f4e4558545f54494d455f50415354000000000000000000000000000000000000604482015260640161027b565b63ffffffff8110611d6c576040517f08c379a000000000000000000000000000000000000000000000000000000000815260206004820152601760248201527f4e4558545f54494d455f554e494e495449414c495a4544000000000000000000604482015260640161027b565b7fffffffffffffffffffffffffffffffffffffffffffffffffffffffffffffffff820180611d986105ff565b14611dff576040517f08c379a000000000000000000000000000000000000000000000000000000000815260206004820152600a60248201527f4e4558545f504841534500000000000000000000000000000000000000000000604482015260640161027b565b60008160088110611e1257611e12613392565b60088104919091015460079091166004026101000a900463ffffffff90811614611e98576040517f08c379a000000000000000000000000000000000000000000000000000000000815260206004820152600d60248201527f4e4558545f54494d455f53455400000000000000000000000000000000000000604482015260640161027b565b8160008260088110611eac57611eac613392565b600891828204019190066004026101000a81548163ffffffff021916908363ffffffff1602179055507fba85f6676f17ca992195e3cb204ae48c68666b109edc14a794e5d894387d25d33384846040516107cb9392919073ffffffffffffffffffffffffffffffffffffffff9390931683526020830191909152604082015260600190565b6001600255565b6000603454421115611f4c57506001611bba565b60408051600080825260208201909252611f839082611f7b565b6060815260200190600190039081611f665790505b5085856118b8565b90507f17a5c0f3785132a57703932032f6863e7920434150aa1dc940e567b440fdce1f3382604051611fb692919061325f565b60405180910390a1600080866000015173ffffffffffffffffffffffffffffffffffffffff16636715f82588602001516000611ff58b604001516126c5565b876040518563ffffffff1660e01b8152600401612015949392919061328e565b600060405180830381865afa158015612032573d6000803e3d6000fd5b505050506040513d6000823e601f3d9081017fffffffffffffffffffffffffffffffffffffffffffffffffffffffffffffffe0168201604052612078919081019061332e565b80519193509150156120f757866020015173ffffffffffffffffffffffffffffffffffffffff1663946aadc66000836040518363ffffffff1660e01b81526004016120c49291906133c1565b600060405180830381600087803b1580156120de57600080fd5b505af11580156120f2573d6000803e3d6000fd5b505050505b60008260018451038151811061210f5761210f613392565b60200260200101511193505050509392505050565b60405173ffffffffffffffffffffffffffffffffffffffff83166024820152604481018290526105fa9084907fa9059cbb00000000000000000000000000000000000000000000000000000000906064015b604080517fffffffffffffffffffffffffffffffffffffffffffffffffffffffffffffffe08184030181529190526020810180517bffffffffffffffffffffffffffffffffffffffffffffffffffffffff167fffffffff00000000000000000000000000000000000000000000000000000000909316929092179091526126f0565b60008160405160200161220b9190613abc565b604051602081830303815290604052805190602001209050919050565b600062020001602083901b77ffffffffffffffffffffffffffffffffffffffff0000000016176108e1565b6000818311612263576000611bba565b50900390565b60008183106122785781611bba565b5090919050565b60006122958484670de0b6b3a7640000856127fc565b949350505050565b600062010002602083901b77ffffffffffffffffffffffffffffffffffffffff0000000016176108e1565b600054600163ffffffff909116106122e2576122e2613acf565b604080516101008101825263ffffffff80825260208201819052918101829052606081018290526080810182905260a0810182905260c0810182905260e08101919091526123336000826008612d2c565b5060408051338152600060208201819052918101919091527fba85f6676f17ca992195e3cb204ae48c68666b109edc14a794e5d894387d25d390606001611c8a565b600154610100900460ff1661240c576040517f08c379a000000000000000000000000000000000000000000000000000000000815260206004820152602b60248201527f496e697469616c697a61626c653a20636f6e7472616374206973206e6f74206960448201527f6e697469616c697a696e67000000000000000000000000000000000000000000606482015260840161027b565b612414612859565b565b6040805160038082526080820190925260609160009190602082018480368337505050602081019590955250506040830191909152606082015290565b606061066433306128f0565b6040517f19457468657265756d205369676e6564204d6573736167653a0a3332000000006020820152603c8101829052600090605c0161220b565b60008060006124a98585612924565b909250905060008160048111156124c2576124c2613afe565b1480156124fa57508573ffffffffffffffffffffffffffffffffffffffff168273ffffffffffffffffffffffffffffffffffffffff16145b1561250a57600192505050611bba565b6000808773ffffffffffffffffffffffffffffffffffffffff16631626ba7e60e01b888860405160240161253f929190613b2d565b604080517fffffffffffffffffffffffffffffffffffffffffffffffffffffffffffffffe08184030181529181526020820180517bffffffffffffffffffffffffffffffffffffffffffffffffffffffff167fffffffff000000000000000000000000000000000000000000000000000000009094169390931790925290516125c89190613b46565b600060405180830381855afa9150503d8060008114612603576040519150601f19603f3d011682016040523d82523d6000602084013e612608565b606091505b509150915081801561261b575080516020145b801561265b575080517f1626ba7e000000000000000000000000000000000000000000000000000000009061265990830160209081019084016135a5565b145b98975050505050505050565b60405173ffffffffffffffffffffffffffffffffffffffff80851660248301528316604482015260648101829052610e7c9085907f23b872dd0000000000000000000000000000000000000000000000000000000090608401612176565b600062030001602083901b77ffffffffffffffffffffffffffffffffffffffff0000000016176108e1565b6000612752826040518060400160405280602081526020017f5361666545524332303a206c6f772d6c6576656c2063616c6c206661696c65648152508573ffffffffffffffffffffffffffffffffffffffff166129699092919063ffffffff16565b8051909150156105fa57808060200190518101906127709190613b58565b6105fa576040517f08c379a000000000000000000000000000000000000000000000000000000000815260206004820152602a60248201527f5361666545524332303a204552433230206f7065726174696f6e20646964206e60448201527f6f74207375636365656400000000000000000000000000000000000000000000606482015260840161027b565b60008061280a868686612978565b9050600183600281111561282057612820613afe565b14801561283d57506000848061283857612838613b75565b868809115b156128505761284d60018261341c565b90505b95945050505050565b600154610100900460ff16611f31576040517f08c379a000000000000000000000000000000000000000000000000000000000815260206004820152602b60248201527f496e697469616c697a61626c653a20636f6e7472616374206973206e6f74206960448201527f6e697469616c697a696e67000000000000000000000000000000000000000000606482015260840161027b565b6040805160028082526060808301845292600092919060208301908036833750505060208101949094525050604082015290565b600080825160410361295a5760208301516040840151606085015160001a61294e87828585612a45565b94509450505050612962565b506000905060025b9250929050565b60606122958484600085612b34565b600080807fffffffffffffffffffffffffffffffffffffffffffffffffffffffffffffffff858709858702925082811083820303915050806000036129d0578382816129c6576129c6613b75565b0492505050611bba565b8084116129dc57600080fd5b60008486880960026001871981018816978890046003810283188082028403028082028403028082028403028082028403028082028403029081029092039091026000889003889004909101858311909403939093029303949094049190911702949350505050565b6000807f7fffffffffffffffffffffffffffffff5d576e7357a4501ddfe92f46681b20a0831115612a7c5750600090506003612b2b565b6040805160008082526020820180845289905260ff881692820192909252606081018690526080810185905260019060a0016020604051602081039080840390855afa158015612ad0573d6000803e3d6000fd5b50506040517fffffffffffffffffffffffffffffffffffffffffffffffffffffffffffffffe0015191505073ffffffffffffffffffffffffffffffffffffffff8116612b2457600060019250925050612b2b565b9150600090505b94509492505050565b606082471015612bc6576040517f08c379a000000000000000000000000000000000000000000000000000000000815260206004820152602660248201527f416464726573733a20696e73756666696369656e742062616c616e636520666f60448201527f722063616c6c0000000000000000000000000000000000000000000000000000606482015260840161027b565b6000808673ffffffffffffffffffffffffffffffffffffffff168587604051612bef9190613b46565b60006040518083038185875af1925050503d8060008114612c2c576040519150601f19603f3d011682016040523d82523d6000602084013e612c31565b606091505b5091509150612c4287838387612c4d565b979650505050505050565b60608315612ce3578251600003612cdc5773ffffffffffffffffffffffffffffffffffffffff85163b612cdc576040517f08c379a000000000000000000000000000000000000000000000000000000000815260206004820152601d60248201527f416464726573733a2063616c6c20746f206e6f6e2d636f6e7472616374000000604482015260640161027b565b5081612295565b6122958383815115612cf85781518083602001fd5b806040517f08c379a000000000000000000000000000000000000000000000000000000000815260040161027b9190613ba4565b600183019183908215612db85791602002820160005b83821115612d8657835183826101000a81548163ffffffff021916908363ffffffff1602179055509260200192600401602081600301049283019260010302612d42565b8015612db65782816101000a81549063ffffffff0219169055600401602081600301049283019260010302612d86565b505b50612dc4929150612dc8565b5090565b5b80821115612dc45760008155600101612dc9565b7f4e487b7100000000000000000000000000000000000000000000000000000000600052604160045260246000fd5b6040516060810167ffffffffffffffff81118282101715612e2f57612e2f612ddd565b60405290565b604051601f82017fffffffffffffffffffffffffffffffffffffffffffffffffffffffffffffffe016810167ffffffffffffffff81118282101715612e7c57612e7c612ddd565b604052919050565b600067ffffffffffffffff821115612e9e57612e9e612ddd565b5060051b60200190565b600082601f830112612eb957600080fd5b81356020612ece612ec983612e84565b612e35565b82815260059290921b84018101918181019086841115612eed57600080fd5b8286015b84811015612f085780358352918301918301612ef1565b509695505050505050565b73ffffffffffffffffffffffffffffffffffffffff8116811461129257600080fd5b60008060408385031215612f4857600080fd5b823567ffffffffffffffff80821115612f6057600080fd5b612f6c86838701612ea8565b9350602091508185013581811115612f8357600080fd5b8501601f81018713612f9457600080fd5b8035612fa2612ec982612e84565b81815260059190911b82018401908481019089831115612fc157600080fd5b8584015b838110156130d457803586811115612fdc57600080fd5b85017fffffffffffffffffffffffffffffffffffffffffffffffffffffffffffffffe06060828e038201121561301157600080fd5b613019612e0c565b8983013561302681612f13565b815260408301358981111561303a57600080fd5b8301603f81018f1361304b57600080fd5b8a8101358a81111561305f5761305f612ddd565b61306f8c85601f84011601612e35565b93508084528f604082840101111561308657600080fd5b80604083018d86013760008c82860101525050818a82015260608301359150888211156130b257600080fd5b6130c08e8b84860101612ea8565b604082015285525050918601918601612fc5565b508096505050505050509250929050565b60008061012083850312156130f957600080fd5b83601f84011261310857600080fd5b60405161010080820182811067ffffffffffffffff8211171561312d5761312d612ddd565b6040528401818682111561314057600080fd5b855b8281101561316d57803563ffffffff8116811461315f5760008081fd5b825260209182019101613142565b509196903595509350505050565b60006020828403121561318d57600080fd5b5035919050565b6000602082840312156131a657600080fd5b813567ffffffffffffffff8111156131bd57600080fd5b820160c08185031215611bba57600080fd5b600081518084526020808501945080840160005b838110156131ff578151875295820195908201906001016131e3565b509495945050505050565b600081518084526020808501808196508360051b8101915082860160005b858110156132525782840389526132408483516131cf565b98850198935090840190600101613228565b5091979650505050505050565b73ffffffffffffffffffffffffffffffffffffffff83168152604060208201526000612295604083018461320a565b73ffffffffffffffffffffffffffffffffffffffff851681528360208201528260408201526080606082015260006132c9608083018461320a565b9695505050505050565b600082601f8301126132e457600080fd5b815160206132f4612ec983612e84565b82815260059290921b8401810191818101908684111561331357600080fd5b8286015b84811015612f085780518352918301918301613317565b6000806040838503121561334157600080fd5b825167ffffffffffffffff8082111561335957600080fd5b613365868387016132d3565b9350602085015191508082111561337b57600080fd5b50613388858286016132d3565b9150509250929050565b7f4e487b7100000000000000000000000000000000000000000000000000000000600052603260045260246000fd5b82815260406020820152600061229560408301846131cf565b7f4e487b7100000000000000000000000000000000000000000000000000000000600052601160045260246000fd5b818103818111156108e1576108e16133da565b808201808211156108e1576108e16133da565b60005b8381101561344a578181015183820152602001613432565b50506000910152565b6000815180845261346b81602086016020860161342f565b601f017fffffffffffffffffffffffffffffffffffffffffffffffffffffffffffffffe0169290920160200192915050565b600081518084526020808501808196508360051b8101915082860160005b858110156132525782840389528151606073ffffffffffffffffffffffffffffffffffffffff82511686528682015181888801526134fb82880182613453565b9150506040808301519250868203818801525061351881836131cf565b9a87019a95505050908401906001016134bb565b73ffffffffffffffffffffffffffffffffffffffff8416815260606020820152600061355b60608301856131cf565b82810360408401526132c9818561349d565b60007fffffffffffffffffffffffffffffffffffffffffffffffffffffffffffffffff820361359e5761359e6133da565b5060010190565b6000602082840312156135b757600080fd5b5051919050565b801515811461129257600080fd5b6000602082840312156135de57600080fd5b8135611bba816135be565b600082357fffffffffffffffffffffffffffffffffffffffffffffffffffffffffffffff8183360301811261361d57600080fd5b9190910192915050565b60006020828403121561363957600080fd5b8135611bba81612f13565b600082357fffffffffffffffffffffffffffffffffffffffffffffffffffffffffffffffc183360301811261361d57600080fd5b60008083357fffffffffffffffffffffffffffffffffffffffffffffffffffffffffffffffe18436030181126136ad57600080fd5b830160208101925035905067ffffffffffffffff8111156136cd57600080fd5b8060051b360382131561296257600080fd5b8183528181602085013750600060208284010152600060207fffffffffffffffffffffffffffffffffffffffffffffffffffffffffffffffe0601f840116840101905092915050565b60008083357fffffffffffffffffffffffffffffffffffffffffffffffffffffffffffffffe184360301811261375d57600080fd5b830160208101925035905067ffffffffffffffff81111561377d57600080fd5b80360382131561296257600080fd5b60006040830161379c8384613678565b604086528281845260608701905060608260051b88010193508260005b83811015613814577fffffffffffffffffffffffffffffffffffffffffffffffffffffffffffffffa08987030183526137f28286613728565b6137fd8882846136df565b9750505060209283019291909101906001016137b9565b50505050506138266020840184613678565b85830360208701528083527f07ffffffffffffffffffffffffffffffffffffffffffffffffffffffffffffff81111561385e57600080fd5b60051b8082602085013791909101602001949350505050565b60408152600061388a604083018561378c565b828103602084015261285081856131cf565b6000602082840312156138ae57600080fd5b8151611bba81612f13565b600082357fffffffffffffffffffffffffffffffffffffffffffffffffffffffffffffff818336030181126138ed57600080fd5b90910192915050565b6000813561390381612f13565b73ffffffffffffffffffffffffffffffffffffffff908116845260208301359061392c82612f13565b908116602085015260408301359061394382612f13565b1660408401526060820135368390037fffffffffffffffffffffffffffffffffffffffffffffffffffffffffffffffc101811261397f57600080fd5b608060608501526122956080850184830161378c565b600073ffffffffffffffffffffffffffffffffffffffff80851683526040602084015283356139c3816135be565b1515604084015260208401356139d881612f13565b16606083015260408301356139ec81612f13565b73ffffffffffffffffffffffffffffffffffffffff166080830152613a1460608401846138b9565b60c060a0840152613a296101008401826138f6565b9050613a386080850185613728565b7fffffffffffffffffffffffffffffffffffffffffffffffffffffffffffffffc08584030160c0860152613a6d8382846136df565b9250505060a084013560e0840152809150509392505050565b815160009082906020808601845b83811015613ab057815185529382019390820190600101613a94565b50929695505050505050565b602081526000611bba602083018461349d565b7f4e487b7100000000000000000000000000000000000000000000000000000000600052600160045260246000fd5b7f4e487b7100000000000000000000000000000000000000000000000000000000600052602160045260246000fd5b8281526040602082015260006122956040830184613453565b6000825161361d81846020870161342f565b600060208284031215613b6a57600080fd5b8151611bba816135be565b7f4e487b7100000000000000000000000000000000000000000000000000000000600052601260045260246000fd5b602081526000611bba602083018461345356fea26469706673582212204fd6decea19250c7ffbcb349a9f36d4830db50b72476c555110a67d3a1a49d0c64736f6c63430008110033",
  "linkReferences": {},
  "deployedLinkReferences": {}
}